:100000000FC028C048C079C025C024C023C022C06A
:1000100021C020C01FC01EC01DC01CC01BC0AD0120
:1000200011241FBECFE5D1E0DEBFCDBF20E0A0E6AA
:10003000B0E001C01D92AD37B207E1F710E0C0E1BA
:10004000D0E003C02197FE01E4D1CF30D107D1F732
:100050006CD0E5C1D5CFF89480B7806880BF80B7F9
:100060008F6080BF8DE38EBD8EB58DBD89B78064F6
:1000700089BF78940895F8948BB780628BBFA89A53
:100080007894089587EA91E60197F1F700C000009F
:100090001092740008950F920FB60F921F921124C0
:1000A0002F933F938F939F93EF93FF93E091700073
:1000B000F09171000480F581E02D20813091720073
:1000C00081E090E002C0880F991F3A95E2F730E096
:1000D00082239323209173002817190619F081E0D9
:1000E00080937400FF91EF919F918F913F912F9199
:1000F0001F900F900FBE0F9018958F938FB78F930F
:100100009F938091750090917600009749F08091BF
:10011000750090917600019790937600809375001A
:100120009F918F918FBF8F911895F89480B78068B9
:1001300080BF80B78F6080BF8DE38EBD8EB58DBDD3
:1001400089B7806489BF7894F8948BB780628BBF3D
:10015000A89A789441E050E0A2E0B0E060E576E44F
:10016000D0916300E0916000F09161000280F38122
:10017000E02D90916200C09174009A01092E01C097
:10018000220F0A94EAF7822FCC2309F457C08091FA
:10019000750090917600892B09F08DC08081D11176
:1001A000D0C0282B2083E0916800F0916900028084
:1001B000F381E02D80916A009A0102C0220F331F63
:1001C0008A95E2F7C90120916B0090812111C1C08D
:1001D000892B8083E0916C00F0916D000280F381A7
:1001E000E02D80916E009A0102C0220F331F8A9584
:1001F000E2F7C90120916F009081211192C0892BF3
:100200008083709376006093750087EA91E601978A
:10021000F1F700C0000010927400D0916300E091EB
:100220006000F09161000280F381E02D9091620006
:10023000842F092E01C0880F0A94EAF720917500D7
:1002400030917600232B09F096CF9081DD2309F4BD
:1002500074C0892B8083E0916800F091690002806E
:10026000F381E02D80916A009A0102C0220F331FB2
:100270008A95E2F7C90120916B009081222309F44D
:1002800058C0892B8083E0916C00F0916D00028052
:10029000F381E02D80916E009A0102C0220F331F7E
:1002A0008A95E2F7C90120916F0090812223E9F13C
:1002B000892B808355CF8081DD2309F446C0282B0C
:1002C0002083B0937600A093750087EA91E60197AA
:1002D000F1F700C00000109274009FE32DE033E0BE
:1002E000915020403040E1F700C000008091740040
:1002F000882309F48ACFE0916000F09161000280C8
:10030000F381E02D809162009A0102C0220F331F19
:100310008A95E2F7C901209163009081222309F4B4
:100320006ECF8095892380836CCF809589238083CD
:1003300017CF809589238083A6CF809589238083DA
:100340008ACF2095282320832ECF20952823208311
:10035000B8CF8095892380833DCFE7E7F0E087E33E
:1003600090E09183808388E390E09383828386E3A7
:1003700090E095838483A0E7B0E01196FC93EE9320
:1003800012961C92129781E013968C93B89AC09A99
:10039000ACE6B0E01196FC93EE9312968C93129714
:1003A00013961C92A081B1818C9182608C93A8E6F7
:1003B000B0E01196FC93EE9382E012968C93129724
:1003C00013961C92A081B1818C9184608C93A4E6D9
:1003D000B0E01196FC93EE9383E012968C93129703
:1003E00013961C92A081B1818C9188608C93A0E6B9
:1003F000B0E01196FC93EE9384E012968C931297E2
:1004000013961C920190F081E02D808180618083A1
:100410000895EE0FFF1F0590F491E02D0994F894D4
:02042000FFCF0C
:00000001FF
